{
  "contractName": "MetaCoin",
  "abi": [
    {
      "inputs": [],
      "stateMutability": "nonpayable",
      "type": "constructor"
    },
    {
      "inputs": [
        {
          "internalType": "address",
          "name": "spender",
          "type": "address"
        },
        {
          "internalType": "uint256",
          "name": "allowance",
          "type": "uint256"
        },
        {
          "internalType": "uint256",
          "name": "needed",
          "type": "uint256"
        }
      ],
      "name": "ERC20InsufficientAllowance",
      "type": "error"
    },
    {
      "inputs": [
        {
          "internalType": "address",
          "name": "sender",
          "type": "address"
        },
        {
          "internalType": "uint256",
          "name": "balance",
          "type": "uint256"
        },
        {
          "internalType": "uint256",
          "name": "needed",
          "type": "uint256"
        }
      ],
      "name": "ERC20InsufficientBalance",
      "type": "error"
    },
    {
      "inputs": [
        {
          "internalType": "address",
          "name": "approver",
          "type": "address"
        }
      ],
      "name": "ERC20InvalidApprover",
      "type": "error"
    },
    {
      "inputs": [
        {
          "internalType": "address",
          "name": "receiver",
          "type": "address"
        }
      ],
      "name": "ERC20InvalidReceiver",
      "type": "error"
    },
    {
      "inputs": [
        {
          "internalType": "address",
          "name": "sender",
          "type": "address"
        }
      ],
      "name": "ERC20InvalidSender",
      "type": "error"
    },
    {
      "inputs": [
        {
          "internalType": "address",
          "name": "spender",
          "type": "address"
        }
      ],
      "name": "ERC20InvalidSpender",
      "type": "error"
    },
    {
      "anonymous": false,
      "inputs": [
        {
          "indexed": true,
          "internalType": "address",
          "name": "owner",
          "type": "address"
        },
        {
          "indexed": true,
          "internalType": "address",
          "name": "spender",
          "type": "address"
        },
        {
          "indexed": false,
          "internalType": "uint256",
          "name": "value",
          "type": "uint256"
        }
      ],
      "name": "Approval",
      "type": "event"
    },
    {
      "anonymous": false,
      "inputs": [
        {
          "indexed": true,
          "internalType": "address",
          "name": "from",
          "type": "address"
        },
        {
          "indexed": true,
          "internalType": "address",
          "name": "to",
          "type": "address"
        },
        {
          "indexed": false,
          "internalType": "uint256",
          "name": "value",
          "type": "uint256"
        }
      ],
      "name": "Transfer",
      "type": "event"
    },
    {
      "inputs": [],
      "name": "INITIAL_SUPPLY",
      "outputs": [
        {
          "internalType": "uint256",
          "name": "",
          "type": "uint256"
        }
      ],
      "stateMutability": "view",
      "type": "function",
      "constant": true
    },
    {
      "inputs": [],
      "name": "NAME",
      "outputs": [
        {
          "internalType": "string",
          "name": "",
          "type": "string"
        }
      ],
      "stateMutability": "view",
      "type": "function",
      "constant": true
    },
    {
      "inputs": [],
      "name": "SYMBOL",
      "outputs": [
        {
          "internalType": "string",
          "name": "",
          "type": "string"
        }
      ],
      "stateMutability": "view",
      "type": "function",
      "constant": true
    },
    {
      "inputs": [
        {
          "internalType": "address",
          "name": "owner",
          "type": "address"
        },
        {
          "internalType": "address",
          "name": "spender",
          "type": "address"
        }
      ],
      "name": "allowance",
      "outputs": [
        {
          "internalType": "uint256",
          "name": "",
          "type": "uint256"
        }
      ],
      "stateMutability": "view",
      "type": "function",
      "constant": true
    },
    {
      "inputs": [
        {
          "internalType": "address",
          "name": "spender",
          "type": "address"
        },
        {
          "internalType": "uint256",
          "name": "value",
          "type": "uint256"
        }
      ],
      "name": "approve",
      "outputs": [
        {
          "internalType": "bool",
          "name": "",
          "type": "bool"
        }
      ],
      "stateMutability": "nonpayable",
      "type": "function"
    },
    {
      "inputs": [
        {
          "internalType": "address",
          "name": "account",
          "type": "address"
        }
      ],
      "name": "balanceOf",
      "outputs": [
        {
          "internalType": "uint256",
          "name": "",
          "type": "uint256"
        }
      ],
      "stateMutability": "view",
      "type": "function",
      "constant": true
    },
    {
      "inputs": [],
      "name": "name",
      "outputs": [
        {
          "internalType": "string",
          "name": "",
          "type": "string"
        }
      ],
      "stateMutability": "view",
      "type": "function",
      "constant": true
    },
    {
      "inputs": [],
      "name": "symbol",
      "outputs": [
        {
          "internalType": "string",
          "name": "",
          "type": "string"
        }
      ],
      "stateMutability": "view",
      "type": "function",
      "constant": true
    },
    {
      "inputs": [],
      "name": "totalSupply",
      "outputs": [
        {
          "internalType": "uint256",
          "name": "",
          "type": "uint256"
        }
      ],
      "stateMutability": "view",
      "type": "function",
      "constant": true
    },
    {
      "inputs": [
        {
          "internalType": "address",
          "name": "to",
          "type": "address"
        },
        {
          "internalType": "uint256",
          "name": "value",
          "type": "uint256"
        }
      ],
      "name": "transfer",
      "outputs": [
        {
          "internalType": "bool",
          "name": "",
          "type": "bool"
        }
      ],
      "stateMutability": "nonpayable",
      "type": "function"
    },
    {
      "inputs": [
        {
          "internalType": "address",
          "name": "from",
          "type": "address"
        },
        {
          "internalType": "address",
          "name": "to",
          "type": "address"
        },
        {
          "internalType": "uint256",
          "name": "value",
          "type": "uint256"
        }
      ],
      "name": "transferFrom",
      "outputs": [
        {
          "internalType": "bool",
          "name": "",
          "type": "bool"
        }
      ],
      "stateMutability": "nonpayable",
      "type": "function"
    },
    {
      "inputs": [],
      "name": "decimals",
      "outputs": [
        {
          "internalType": "uint8",
          "name": "",
          "type": "uint8"
        }
      ],
      "stateMutability": "view",
      "type": "function",
      "constant": true
    }
  ],
  "bytecode": "0x60806040523480156200001157600080fd5b506040518060400160405280601081526020017f596964656e674552433230546f6b656e000000000000000000000000000000008152506040518060400160405280600281526020017f594400000000000000000000000000000000000000000000000000000000000081525081600390816200008f91906200034b565b5060046200009e82826200034b565b505050620000be33612710620000c4640100000000026401000000009004565b6200045f565b600160a060020a0382166200010d576040517fec442f05000000000000000000000000000000000000000000000000000000008152600060048201526024015b60405180910390fd5b620001246000838364010000000062000128810204565b5050565b600160a060020a038316620001575780600260008282546200014b91906200041e565b90915550620001e49050565b600160a060020a03831660009081526020819052604090205481811015620001c5576040517fe450d38c000000000000000000000000000000000000000000000000000000008152600160a060020a0385166004820152602481018290526044810183905260640162000104565b600160a060020a03841660009081526020819052604090209082900390555b600160a060020a038216620002025760028054829003905562000221565b600160a060020a03821660009081526020819052604090208054820190555b81600160a060020a031683600160a060020a03167fddf252ad1be2c89b69c2b068fc378daa952ba7f163c4a11628f55a4df523b3ef836040516200026791815260200190565b60405180910390a3505050565b7f4e487b7100000000000000000000000000000000000000000000000000000000600052604160045260246000fd5b600281046001821680620002b857607f821691505b602082108103620002f2577f4e487b7100000000000000000000000000000000000000000000000000000000600052602260045260246000fd5b50919050565b601f82111562000346576000818152602081206020601f86010481016020861015620003215750805b6020601f860104820191505b8181101562000342578281556001016200032d565b5050505b505050565b815167ffffffffffffffff81111562000368576200036862000274565b6200038081620003798454620002a3565b84620002f8565b602080601f831160018114620003bc57600084156200039f5750858301515b60028086026008870290910a600019041982161786555062000342565b600085815260208120601f198616915b82811015620003ed57888601518255948401946001909101908401620003cc565b50858210156200040e57878501516008601f88160260020a60001904191681555b5050505050600202600101905550565b8082018082111562000459577f4e487b7100000000000000000000000000000000000000000000000000000000600052601160045260246000fd5b92915050565b6108a7806200046f6000396000f3fe608060405234801561001057600080fd5b50600436106100d1576000357c01000000000000000000000000000000000000000000000000000000009004806370a082311161008e57806370a082311461015457806395d89b411461017d578063a3f4df7e14610185578063a9059cbb146101c1578063dd62ed3e146101d4578063f76f8d781461020d57600080fd5b806306fdde03146100d6578063095ea7b3146100f457806318160ddd1461011757806323b872dd146101295780632ff2e9dc1461013c578063313ce56714610145575b600080fd5b6100de610249565b6040516100eb91906106bf565b60405180910390f35b610107610102366004610729565b6102db565b60405190151581526020016100eb565b6002545b6040519081526020016100eb565b610107610137366004610753565b6102f5565b61011b61271081565b604051600081526020016100eb565b61011b61016236600461078f565b600160a060020a031660009081526020819052604090205490565b6100de610319565b6100de6040518060400160405280601081526020017f596964656e674552433230546f6b656e0000000000000000000000000000000081525081565b6101076101cf366004610729565b610328565b61011b6101e23660046107b1565b600160a060020a03918216600090815260016020908152604080832093909416825291909152205490565b6100de6040518060400160405280600281526020017f594400000000000000000000000000000000000000000000000000000000000081525081565b606060038054610258906107e4565b80601f0160208091040260200160405190810160405280929190818152602001828054610284906107e4565b80156102d15780601f106102a6576101008083540402835291602001916102d1565b820191906000526020600020905b8154815290600101906020018083116102b457829003601f168201915b5050505050905090565b6000336102e9818585610336565b60019150505b92915050565b600033610303858285610348565b61030e8585856103e4565b506001949350505050565b606060048054610258906107e4565b6000336102e98185856103e4565b6103438383836001610475565b505050565b600160a060020a0383811660009081526001602090815260408083209386168352929052205460001981146103de57818110156103cf576040517ffb8f41b2000000000000000000000000000000000000000000000000000000008152600160a060020a038416600482015260248101829052604481018390526064015b60405180910390fd5b6103de84848484036000610475565b50505050565b600160a060020a038316610427576040517f96c6fd1e000000000000000000000000000000000000000000000000000000008152600060048201526024016103c6565b600160a060020a03821661046a576040517fec442f05000000000000000000000000000000000000000000000000000000008152600060048201526024016103c6565b61034383838361057c565b600160a060020a0384166104b8576040517fe602df05000000000000000000000000000000000000000000000000000000008152600060048201526024016103c6565b600160a060020a0383166104fb576040517f94280d62000000000000000000000000000000000000000000000000000000008152600060048201526024016103c6565b600160a060020a03808516600090815260016020908152604080832093871683529290522082905580156103de5782600160a060020a031684600160a060020a03167f8c5be1e5ebec7d5bd14f71427d1e84f3dd0314c0f7b2291e5b200ac8c7c3b9258460405161056e91815260200190565b60405180910390a350505050565b600160a060020a0383166105a757806002600082825461059c9190610837565b909155506106329050565b600160a060020a03831660009081526020819052604090205481811015610613576040517fe450d38c000000000000000000000000000000000000000000000000000000008152600160a060020a038516600482015260248101829052604481018390526064016103c6565b600160a060020a03841660009081526020819052604090209082900390555b600160a060020a03821661064e5760028054829003905561066d565b600160a060020a03821660009081526020819052604090208054820190555b81600160a060020a031683600160a060020a03167fddf252ad1be2c89b69c2b068fc378daa952ba7f163c4a11628f55a4df523b3ef836040516106b291815260200190565b60405180910390a3505050565b600060208083528351808285015260005b818110156106ec578581018301518582016040015282016106d0565b506000604082860101526040601f19601f8301168501019250505092915050565b8035600160a060020a038116811461072457600080fd5b919050565b6000806040838503121561073c57600080fd5b6107458361070d565b946020939093013593505050565b60008060006060848603121561076857600080fd5b6107718461070d565b925061077f6020850161070d565b9150604084013590509250925092565b6000602082840312156107a157600080fd5b6107aa8261070d565b9392505050565b600080604083850312156107c457600080fd5b6107cd8361070d565b91506107db6020840161070d565b90509250929050565b6002810460018216806107f857607f821691505b602082108103610831577f4e487b7100000000000000000000000000000000000000000000000000000000600052602260045260246000fd5b50919050565b808201808211156102ef577f4e487b7100000000000000000000000000000000000000000000000000000000600052601160045260246000fdfea264697066735822122039929d1708f4be623a82813a6611af024fcea95857e2b79cce3cdc5f878a687164736f6c63430008140033",
  "immutableReferences": {},
  "source": "// SPDX-License-Identifier: MIT\r\npragma solidity ^0.8.10;\r\n\r\nimport \"@openzeppelin/contracts/token/ERC20/ERC20.sol\";\r\n\r\ncontract MetaCoin is ERC20 {\r\n    string public constant NAME = \"YidengERC20Token\";\r\n    string public constant SYMBOL = \"YD\";\r\n    uint256 public constant INITIAL_SUPPLY = 10000;\r\n\r\n    constructor() ERC20(NAME, SYMBOL) {\r\n        _mint(msg.sender, INITIAL_SUPPLY);\r\n    }\r\n\r\n    function decimals() public view virtual override returns (uint8) {\r\n        return 0;\r\n    }\r\n}\r\n",
  "sourcePath": "D:\\fight2023-2\\web3\\ys-solidity\\contracts\\MetaCoin.sol",
  "compiler": {
    "name": "solc",
    "version": "0.8.20+commit.a1b79de6.Emscripten.clang"
  },
  "schemaVersion": "3.4.16",
  "updatedAt": "2024-12-18T04:48:34.456Z",
  "networkType": "ethereum",
  "devdoc": {
    "errors": {
      "ERC20InsufficientAllowance(address,uint256,uint256)": [
        {
          "details": "Indicates a failure with the `spender`s `allowance`. Used in transfers.",
          "params": {
            "allowance": "Amount of tokens a `spender` is allowed to operate with.",
            "needed": "Minimum amount required to perform a transfer.",
            "spender": "Address that may be allowed to operate on tokens without being their owner."
          }
        }
      ],
      "ERC20InsufficientBalance(address,uint256,uint256)": [
        {
          "details": "Indicates an error related to the current `balance` of a `sender`. Used in transfers.",
          "params": {
            "balance": "Current balance for the interacting account.",
            "needed": "Minimum amount required to perform a transfer.",
            "sender": "Address whose tokens are being transferred."
          }
        }
      ],
      "ERC20InvalidApprover(address)": [
        {
          "details": "Indicates a failure with the `approver` of a token to be approved. Used in approvals.",
          "params": {
            "approver": "Address initiating an approval operation."
          }
        }
      ],
      "ERC20InvalidReceiver(address)": [
        {
          "details": "Indicates a failure with the token `receiver`. Used in transfers.",
          "params": {
            "receiver": "Address to which tokens are being transferred."
          }
        }
      ],
      "ERC20InvalidSender(address)": [
        {
          "details": "Indicates a failure with the token `sender`. Used in transfers.",
          "params": {
            "sender": "Address whose tokens are being transferred."
          }
        }
      ],
      "ERC20InvalidSpender(address)": [
        {
          "details": "Indicates a failure with the `spender` to be approved. Used in approvals.",
          "params": {
            "spender": "Address that may be allowed to operate on tokens without being their owner."
          }
        }
      ]
    },
    "events": {
      "Approval(address,address,uint256)": {
        "details": "Emitted when the allowance of a `spender` for an `owner` is set by a call to {approve}. `value` is the new allowance."
      },
      "Transfer(address,address,uint256)": {
        "details": "Emitted when `value` tokens are moved from one account (`from`) to another (`to`). Note that `value` may be zero."
      }
    },
    "kind": "dev",
    "methods": {
      "allowance(address,address)": {
        "details": "See {IERC20-allowance}."
      },
      "approve(address,uint256)": {
        "details": "See {IERC20-approve}. NOTE: If `value` is the maximum `uint256`, the allowance is not updated on `transferFrom`. This is semantically equivalent to an infinite approval. Requirements: - `spender` cannot be the zero address."
      },
      "balanceOf(address)": {
        "details": "See {IERC20-balanceOf}."
      },
      "decimals()": {
        "details": "Returns the number of decimals used to get its user representation. For example, if `decimals` equals `2`, a balance of `505` tokens should be displayed to a user as `5.05` (`505 / 10 ** 2`). Tokens usually opt for a value of 18, imitating the relationship between Ether and Wei. This is the default value returned by this function, unless it's overridden. NOTE: This information is only used for _display_ purposes: it in no way affects any of the arithmetic of the contract, including {IERC20-balanceOf} and {IERC20-transfer}."
      },
      "name()": {
        "details": "Returns the name of the token."
      },
      "symbol()": {
        "details": "Returns the symbol of the token, usually a shorter version of the name."
      },
      "totalSupply()": {
        "details": "See {IERC20-totalSupply}."
      },
      "transfer(address,uint256)": {
        "details": "See {IERC20-transfer}. Requirements: - `to` cannot be the zero address. - the caller must have a balance of at least `value`."
      },
      "transferFrom(address,address,uint256)": {
        "details": "See {IERC20-transferFrom}. Skips emitting an {Approval} event indicating an allowance update. This is not required by the ERC. See {xref-ERC20-_approve-address-address-uint256-bool-}[_approve]. NOTE: Does not update the allowance if the current allowance is the maximum `uint256`. Requirements: - `from` and `to` cannot be the zero address. - `from` must have a balance of at least `value`. - the caller must have allowance for ``from``'s tokens of at least `value`."
      }
    },
    "version": 1
  },
  "userdoc": {
    "kind": "user",
    "methods": {},
    "version": 1
  }
}